:100000000C9434000C9449000C9449000C94490061
:100010000C9449000C9449000C9449000C9449003C
:100020000C9449000C9449000C9449000C9449002C
:100030000C9449000C9449000C9449000C9449001C
:100040000C9449000C9449000C9449000C9449000C
:100050000C9449000C9449000C9449000C944900FC
:100060000C9449000C94490011241FBECFEFD8E036
:10007000DEBFCDBF11E0A0E0B1E0E2E7F1E002C0F9
:1000800005900D92AE32B107D9F70E944B000C9447
:10009000B7000C9400000E9459000E945C002FEFF2
:1000A00089E698E1215080409040E1F700C00000CF
:1000B000F4CF0E946300089566E071E082E091E071
:1000C0000E94B200089587E690E09093C500809367
:1000D000C400E0ECF0E080818D7F808388E1809334
:1000E000C10086E08093C2000895E0910001F09184
:1000F0000101908195FFF9CF8093C60008958AE0B1
:100100000E94750008958F929F92AF92BF92EF92D6
:10011000FF920F931F93CF93DF93862E972EA82ED7
:10012000B92EF501C081D1817E01028113810C17A6
:100130001D0764F4DF91CF911F910F91FF90EF9015
:10014000BF90AF909F908F9008952196FE01EE1979
:10015000FF09E80DF91D80810E9475000C171D072D
:10016000A1F7E8CF0E9483000E947F000895F894D1
:02017000FFCFBF
:10017200C000010026004372617A792070656F70B9
:100182006C65207573696E672075736520616461A3
:0E019200206F6E2061726475696E6F2100002F
:00000001FF
